:100000000C9462000C945F030C9438030C948A00E7
:100010000C948A000C948A000C948A000C948A0038
:100020000C948A000C948A000C948A000C948A0028
:100030000C948A000C948A000C948A000C948A0018
:100040000C94EE020C948A000C94AC030C9486037E
:100050000C948A000C948A000C948A000C948A00F8
:100060000C948A000C948A000000000024002700F1
:100070002A0000000000250028002B0000000008D6
:10008000000201000003040700000000000000005F
:1000900000000000230026002900040404040404D6
:1000A0000404020202020202030303030303010227
:1000B00004081020408001020408102001020408F6
:1000C0001020230411241FBECFEFD8E0DEBFCDBF28
:1000D00011E0A0E0B1E0E4E1F1E102C005900D9291
:1000E000A632B107D9F721E0A6E2B1E001C01D9226
:1000F000AE3DB207E1F710E0C2E6D0E004C02197C0
:10010000FE010E947D08C136D107C9F70E9466042E
:100110000C9488080C94000090E0FC01E458FF4F18
:100120002491FC01E255FF4F3491FC01E656FF4F4C
:10013000E491EE2309F43CC0222339F1233091F0FD
:1001400038F42130A9F0223001F584B58F7D12C03A
:10015000273091F02830A1F02430B9F4809180004C
:100160008F7D03C0809180008F77809380000DC0C9
:1001700084B58F7784BD09C08091B0008F7703C0AC
:100180008091B0008F7D8093B000F0E0EE0FFF1FF4
:10019000EE58FF4FA591B4919FB7F894611104C038
:1001A0008C913095382302C0EC913E2B3C939FBF3D
:1001B0000895CF93DF9390E0FC01E255FF4F249127
:1001C000FC01E656FF4F8491882361F190E0880F8F
:1001D000991FFC01E859FF4FC591D491FC01EE58DD
:1001E000FF4FA591B491611109C09FB7F894888120
:1001F000209582238883EC912E230BC0623061F41A
:100200009FB7F8948881322F309583238883EC91AF
:100210002E2B2C939FBF06C08FB7F894E8812E2B0E
:1002200028838FBFDF91CF9108951F93CF93DF93E2
:10023000182FEB0161E00E94D900209711F460E0D3
:1002400004C0CF3FD10539F461E0812FDF91CF9118
:100250001F910C948C00E12FF0E0E458FF4FE491E3
:10026000E330F9F048F4E130B9F0E230A1F584B5BB
:10027000806284BDC8BD34C0E730E9F0E83019F1D0
:10028000E43049F580918000806280938000D093B3
:100290008B00C0938A0024C084B5806884BDC7BD2C
:1002A0001FC080918000806880938000D093890077
:1002B000C093880015C08091B00080688093B00022
:1002C000C093B3000DC08091B00080628093B000F5
:1002D000C093B40005C0C038D1050CF0B5CFAFCF86
:1002E000DF91CF911F910895809126019091270170
:1002F000A0912801B09129010196A11DB11D809303
:10030000260190932701A0932801B0932901089515
:1003100080912A0190912B01A0912C01B0912D0187
:100320000196A11DB11D80932A0190932B01A093EA
:100330002C01B0932D0108950895CF92DF92EF9292
:10034000FF920F931F93CF93DF936C017A018B0180
:10035000C0E0D0E0CE15DF0581F0D8016D918D01B0
:10036000D601ED91FC910190F081E02DC601099537
:10037000892B11F02196EECF7E01C701DF91CF913D
:100380001F910F91FF90EF90DF90CF900895089507
:1003900080E090E00895FC01538D448D252F30E0DE
:1003A000842F90E0821B930B541710F0CF96089582
:1003B00001970895FC01918D828D981761F0828DCF
:1003C000DF01A80FB11D5D968C91928D9F5F9F7389
:1003D000928F90E008958FEF9FEF0895FC01918D2B
:1003E000828D981731F0828DE80FF11D858D90E098
:1003F00008958FEF9FEF0895FC01918D228D892F35
:1004000090E0805C9F4F821B91098F73992708951C
:1004100087E391E00E94FC0121E0892B09F420E0B0
:10042000822F0895FC01848DDF01A80FB11DA35A0E
:10043000BF4F2C91848D90E001968F739927848F04
:10044000A689B7892C93A089B1898C918370806427
:100450008C93938D848D981306C00288F389E02DC8
:1004600080818F7D80830895EF92FF920F931F9379
:10047000CF93DF93EC0181E0888F9B8D8C8D981357
:1004800005C0E889F989808185FD26C0F62E0B8D8F
:1004900010E00F5F1F4F0F731127E02E8C8DE812B5
:1004A0000CC00FB607FCFACFE889F989808185FF77
:1004B000F5CFCE010E941202F1CF8B8DFE01E80F25
:1004C000F11DE35AFF4FF0829FB7F8940B8FEA8932
:1004D000FB89808180620AC09FB7F894EE89FF890A
:1004E0006083E889F98980818370806480839FBFFD
:1004F00081E090E0DF91CF911F910F91FF90EF90FD
:100500000895CF93DF93EC01888D8823C9F0EA89A1
:10051000FB89808185FD05C0A889B9898C9186FDFC
:100520000FC00FB607FCF5CF808185FFF2CFA889F9
:10053000B9898C9185FFEDCFCE010E941202E7CFE1
:10054000DF91CF91089580E090E0892B29F00E94FF
:10055000080281110C94000008950F931F9390E0FE
:10056000FC01E255FF4F6491FC01E656FF4FE49118
:10057000F0E0EE0FFF1FE057FF4F8591949100E4EC
:1005800012E42FE030E0462F0E94DE036115710572
:100590008105910549F0DC01CB010196A11DB11D3A
:1005A000BC01CD019F7003C060E070E0CB011F91E2
:1005B0000F910895009769F0FC0101900020E9F780
:1005C0003197AF01481B590BBC0187E391E00C94B4
:1005D0009D0180E090E008950E9483081F920F9291
:1005E0000FB60F9211242F933F938F939F93AF9346
:1005F000BF938091330190913401A0913501B09166
:1006000036013091320123E0230F2D3720F401967B
:10061000A11DB11D05C026E8230F0296A11DB11D25
:10062000209332018093330190933401A0933501DC
:10063000B093360180912E0190912F01A09130014D
:10064000B09131010196A11DB11D80932E019093AF
:100650002F01A0933001B0933101BF91AF919F91D1
:100660008F913F912F910F900FBE0F901F90189573
:100670001F920F920FB60F9211242F933F934F9317
:100680005F936F937F938F939F93AF93BF93EF93FA
:10069000FF93E0910201F09103010995FF91EF9121
:1006A000BF91AF919F918F917F916F915F914F918A
:1006B0003F912F910F900FBE0F901F9018951F9292
:1006C0000F920FB60F9211242F933F934F935F9386
:1006D0006F937F938F939F93AF93BF93EF93FF930A
:1006E000E0910001F09101010995FF91EF91BF9117
:1006F000AF919F918F917F916F915F914F913F91BA
:100700002F910F900FBE0F901F9018951F920F9270
:100710000FB60F9211242F933F934F935F936F93D4
:100720007F938F939F93AF93BF93EF93FF9387E351
:1007300091E00E941202FF91EF91BF91AF919F91C2
:100740008F917F916F915F914F913F912F910F907A
:100750000FBE0F901F9018951F920F920FB60F9219
:1007600011242F938F939F93EF93FF93E091470171
:10077000F09148018081E0914D01F0914E0182FDA0
:1007800012C09081809150018F5F8F732091510131
:10079000821751F0E0915001F0E0E95CFE4F958F37
:1007A0008093500101C08081FF91EF919F918F91C3
:1007B0002F910F900FBE0F901F901895CF92DF9240
:1007C000EF92FF920F931F93E82FF92F05C001506E
:1007D00011092109310961F1908196239417B9F328
:1007E00005C0015011092109310911F190819623A9
:1007F0009413F7CFC12CD12CE12CF12C0AC08FEF30
:10080000C81AD80AE80AF80A0C151D052E053F0576
:1008100079F080818623841791F36C2D7D2D8E2DA8
:100820009F2D1F910F91FF90EF90DF90CF90089533
:1008300060E070E080E090E01F910F91FF90EF90FA
:10084000DF90CF900895E7E3F1E01382128288EE03
:1008500093E0A0E0B0E084839583A683B78388E02B
:1008600091E09183808385EC90E09587848784EC88
:1008700090E09787868780EC90E0918B808B81EC6D
:1008800090E0938B828B82EC90E0958B848B86EC4E
:1008900090E0978B868B118E128E138E148EE4ED62
:1008A000F1E082E0808384E0818389E0828386E0D6
:1008B00083838EE0848387E0858388E086838AE073
:1008C00087838CE080878FE081870895CF93DF93C3
:1008D000CDB7DEB7A1970FB6F894DEBF0FBECDBF80
:1008E000789484B5826084BD84B5816084BD85B50B
:1008F000826085BD85B5816085BD80916E00816017
:1009000080936E00109281008091810082608093BC
:1009100081008091810081608093810080918000BE
:100920008160809380008091B10084608093B100E9
:100930008091B00081608093B00080917A008460E3
:1009400080937A0080917A00826080937A0080910F
:100950007A00816080937A0080917A008068809329
:100960007A001092C100E0914701F091480182E0C5
:100970008083E0914301F09144011082E0914501B0
:10098000F09146018FEC808310924F01E0914B0172
:10099000F0914C0186E08083E0914901F0914A0199
:1009A000808180618083E0914901F0914A018081DA
:1009B00088608083E0914901F0914A0180818068DC
:1009C0008083E0914901F0914A0180818F7D80838D
:1009D00061E08091D4010E94D90061E08091D5014D
:1009E0000E94D90061E08091D6010E94D90060E0A8
:1009F0008091D7010E94D90060E08091D8010E94C7
:100A0000D90061E08091D9010E94D90061E0809114
:100A1000DA010E94D90061E08091DB010E94D900D7
:100A200060E08091DC010E94D90060E08091DD01EE
:100A30000E94D9008091D601893081F48091DB0138
:100A40008A3061F480EA8093800081E180938100A4
:100A500080E991E0909387008093860061E086E0D2
:100A60000E948C0061E082E00E94D90061E084E095
:100A70000E94D90060E083E00E94D90060E085E038
:100A80000E94D90083E00E94AD0261E08CE00E94E8
:100A90008C0061E087E00E94D90061E088E00E945C
:100AA000D90060E08BE00E94D90060E08DE00E94F8
:100AB000D9008BE00E94AD028DE00E94AD028091D2
:100AC000D601893059F49091DB019A3039F482E3F0
:100AD00090E0909389008093880004C06FE170E0FB
:100AE0000E94150161E08091D4010E948C0060E0B9
:100AF0008091D5010E948C008091D601893059F4F3
:100B00008091DB018A3039F482E390E090938B008E
:100B100080938A0006C06FE170E08091DB010E9443
:100B2000150161E08091D9010E948C0060E0809104
:100B3000DA010E948C0084E791E090930301809396
:100B40000201809169008C6080936900E99A83E4D6
:100B5000382E30927C0080917A00806480937A00F5
:100B600080917A0086FDFCCF6091780080917900B9
:100B700070E0782B072E000C880B990B0E9434072D
:100B80006B017C014B015C019B01AC010E9456088A
:100B9000882319F086E191E01AC026013701E89414
:100BA00077F82FEF3FEF4FE75FE7C301B2010E94F5
:100BB000560881110FC02FEF3FEF4FE75FE7C301EA
:100BC000B2010E94FE0618162CF48AE191E00E9400
:100BD000DA02A0C02FEF3FEF4FE75FE4C701B60195
:100BE0000E94E40718161CF48EE191E0F0CF2FEF7D
:100BF0003FEF4FE75FECC701B6010E94FE0687FD9D
:100C0000F3CF20E030E0A901C701B6010E94FE0643
:100C100087FF0BC06DE287E391E00E94340246013A
:100C20005701B7FAB094B7F8B0942AE037ED43EA29
:100C30005BE3C501B4010E9492066B017C010E9436
:100C400003074B015C010E9432079B01AC01C70105
:100C5000B6010E9491062B013C0119A27E0181E29E
:100C6000E80EF11C0E2DDF2CC501B4012AE030E0A6
:100C700040E050E00E945B0849015A01605DF701C5
:100C800062937F01232B242B252B71F7CF010E9428
:100C9000DA026EE287E391E00E94340213E0115021
:100CA000C9F120E030E040E251E4C301B2010E940A
:100CB000E9074B015C010E9403079B0140E050E003
:100CC00019A2E02EFD2C562E632E742EC52ECA01BD
:100CD000B9012AE030E040E050E00E945B08605D2E
:100CE000F70162937F01211531054105510579F71F
:100CF000CF010E94DA02652D762D872D9C2D0E9452
:100D000032079B01AC01C501B4010E9491062B0181
:100D10003C01C5CF82E291E00E94DA020E94A30268
:100D200018CF5058BB27AA270E94A9060C94AA07DF
:100D30000E949C0738F00E94A30720F039F49F3FDF
:100D400019F426F40C9499070EF4E095E7FB0C9443
:100D50009307E92F0E94BB0758F3BA17620773077E
:100D60008407950720F079F4A6F50C94DD070EF4BE
:100D7000E0950B2EBA2FA02D0B01B90190010C01AB
:100D8000CA01A0011124FF27591B99F0593F50F4C3
:100D9000503E68F11A16F040A22F232F342F44271B
:100DA000585FF3CF469537952795A795F040539513
:100DB000C9F77EF41F16BA0B620B730B840BBAF0E3
:100DC0009150A1F0FF0FBB1F661F771F881FC2F74E
:100DD0000EC0BA0F621F731F841F48F48795779562
:100DE0006795B795F7959E3F08F0B0CF9395880F1C
:100DF00008F09927EE0F9795879508950E946F0741
:100E000008F481E008950E94C30788F09F5798F086
:100E1000B92F9927B751B0F0E1F0660F771F881FFF
:100E2000991F1AF0BA95C9F714C0B13091F00E9419
:100E3000DD07B1E008950C94DD07672F782F882730
:100E4000B85F39F0B93FCCF3869577956795B39540
:100E5000D9F73EF490958095709561957F4F8F4FAF
:100E60009F4F0895E89409C097FB3EF490958095B4
:100E7000709561957F4F8F4F9F4F9923A9F0F92F60
:100E800096E9BB279395F695879577956795B795DE
:100E9000F111F8CFFAF4BB0F11F460FF1BC06F5FC4
:100EA0007F4F8F4F9F4F16C0882311F096E911C0D6
:100EB000772321F09EE8872F762F05C0662371F0F7
:100EC00096E8862F70E060E02AF09A95660F771F0B
:100ED000881FDAF7880F9695879597F90895990FE7
:100EE0000008550FAA0BE0E8FEEF16161706E807F4
:100EF000F907C0F012161306E407F50798F0621B15
:100F0000730B840B950B39F40A2661F0232B242BE9
:100F1000252B21F408950A2609F4A140A6958FEF08
:100F2000811D811D089597F99F6780E870E060E05A
:100F300008959FEF80EC089500240A941616170672
:100F400018060906089500240A94121613061406BA
:100F500005060895092E0394000C11F4882352F01D
:100F6000BB0F40F4BF2B11F460FF04C06F5F7F4FD5
:100F70008F4F9F4F089557FD9058440F551F59F0BC
:100F80005F3F71F04795880F97FB991F61F09F3F76
:100F900079F087950895121613061406551FF2CF9F
:100FA0004695F1DF08C0161617061806991FF1CFEF
:100FB00086957105610508940895E894BB27662716
:100FC0007727CB0197F908950E946F0708F48FEFF8
:100FD00008950E94FC070C94AA070E949C0738F011
:100FE0000E94A30720F0952311F00C9493070C9412
:100FF000990711240C94DE070E94BB0770F3959F9C
:10100000C1F3950F50E0551F629FF001729FBB27FF
:10101000F00DB11D639FAA27F00DB11DAA1F649F9B
:101020006627B00DA11D661F829F2227B00DA11D4E
:10103000621F739FB00DA11D621F839FA00D611DD4
:10104000221F749F3327A00D611D231F849F600DF5
:10105000211D822F762F6A2F11249F5750409AF01E
:10106000F1F088234AF0EE0FFF1FBB1F661F771FAA
:10107000881F91505040A9F79E3F510580F00C9475
:1010800093070C94DE075F3FE4F3983ED4F3869514
:1010900077956795B795F795E7959F5FC1F7FE2B15
:1010A000880F911D9695879597F908950E946F076F
:1010B000880B990B0895A1E21A2EAA1BBB1BFD01F8
:1010C0000DC0AA1FBB1FEE1FFF1FA217B307E40727
:1010D000F50720F0A21BB30BE40BF50B661F771F7F
:1010E000881F991F1A9469F760957095809590955F
:1010F0009B01AC01BD01CF010895EE0FFF1F0590CC
:10110000F491E02D099481E090E0F8940C94880823
:04111000F894FFCF81
:101114009C019C010000000034029D01CB0181026E
:10112400FC01DA01EE016E616E00696E66006F7695
:0611340066000D0A000038
:00000001FF
